{
  "contractName": "Logictwo",
  "abi": [
    {
      "constant": true,
      "inputs": [],
      "name": "value",
      "outputs": [
        {
          "name": "",
          "type": "uint256"
        }
      ],
      "payable": false,
      "stateMutability": "view",
      "type": "function"
    },
    {
      "constant": false,
      "inputs": [],
      "name": "addFive",
      "outputs": [],
      "payable": false,
      "stateMutability": "nonpayable",
      "type": "function"
    }
  ],
  "bytecode": "0x608060405234801561001057600080fd5b5060ce8061001f6000396000f3006080604052600436106049576000357c0100000000000000000000000000000000000000000000000000000000900463ffffffff1680633fa4f24514604e578063661d8829146076575b600080fd5b348015605957600080fd5b506060608a565b6040518082815260200191505060405180910390f35b348015608157600080fd5b5060886090565b005b60005481565b600560008082825401925050819055505600a165627a7a723058200c32c0180d204839b48ba1bc92acba930c6d405a2e96493d9679c44196c831030029",
  "source": "pragma solidity ^0.4.24;\n\nimport \"./Storage.sol\";\n\ncontract Logictwo is Storage{\n    function addFive() public {\n        value += 5;\n    }\n}",
  "sourcePath": "/Users/sheraz/Junk/playground/proxy/contracts/Logictwo.sol",
  "compiler": {
    "name": "solc",
    "version": "0.4.24+commit.e67f0147.Emscripten.clang"
  },
  "schemaVersion": "2.0.1",
  "updatedAt": "2018-09-04T05:54:30.502Z"
}